:10000000C0060020291C0000811A0000371C0000D7
:10001000371C0000371C0000371C0000371C000094
:10002000000000000000000000000000371C00007D
:10003000371C000000000000371C0000371C0000C7
:10004000250C00005B0B0000FB0C00007F0D000086
:100050003D14000085150000911600006117000096
:100060000000000000000000000000000000000090
:100070000000000000000000000000000000000080
:100080000000000000000000000000000000000070
:100090000000000000000000000000000000000060
:1000A0000000000000000000000000000000000050
:1000B0000000000000000000000000000000000040
:1000C0000000000000000000000000000000000030
:1000D0000000000000000000000000000000000020
:1000E0000000000000000000000000000000000010
:1000F0000000000000000000000000000000000000
:1001000000000000000000000000000000000000EF
:1001100000000000000000000000000000000000DF
:1001200000000000000000000000000000000000CF
:1001300000000000000000000000000000000000BF
:1001400000000000000000000000000000000000AF
:10015000000000000000000000000000000000009F
:10016000000000000000000000000000000000008F
:10017000000000000000000000000000000000007F
:10018000000000000000000000000000000000006F
:10019000000000000000000000000000000000005F
:1001A000000000000000000000000000000000004F
:1001B000000000000000000000000000000000003F
:1001C000FFFFFFFFFFFFFFFFFFFFFFFFFFFFFFFF3F
:1001D000FFFFFFFFFFFFFFFFFFFFFFFFFFFFFFFF2F
:1001E000FFFFFFFFFFFFFFFFFFFFFFFFFFFFFFFF1F
:1001F000FFFFFFFFFFFFFFFFFFFFFFFFFFFFFFFF0F
:1002000080B56F46B8B043F60050C0F200000188D8
:100210000029019100F03E81456840F2B80043F6A4
:100220004011C2F20000C0F2000100F0D2FA06A8AC
:100230001030B82103F056F940F62150C0F20A0000
:10024000099046F67240C2F2641043F61C160890FC
:1002500042F26F00C0F20006C6F677703168079070
:10026000486846F268514068C6F66C41826806915B
:1002700092E80B001A68904740F27C0BC2F2000B28
:100280005846314600F030F9A81E40F2310640F6DB
:10029000000940F2300A0090C2F20006C4F20809D8
:1002A000C2F2000A05AC0025002002900BE000BF5E
:1002B0004FF4FA704FF47A7101F0B3FB40F27C0B0B
:1002C000C2F2000B05AC45F61B30C0F248000690A8
:1002D00000200DF118083070404603F019F902466D
:1002E00040F2B800C2F20000414600F00EFC00BF30
:1002F000307828B90120012101F093FBF8E700BF15
:1003000040F2281EEFF31080012181F31088C2F221
:10031000000EDEF8001039B940F60351C4F20801AE
:1003200000220A7040220A70DEF8001043F6FA78C4
:100330000131CEF8001080F310880298DDE9001238
:1003400040F00400C0B26FF03F0CCFF6FE7800BF63
:1003500031F8023F013A0CEA9306DBB206EB830365
:1003600053F8096006EA080646EA000643F8096001
:10037000EED1EFF31080012181F31088DEF8001038
:1003800021B1DEF800100139CEF80010DEF80010BF
:1003900039B940F60351C4F2080100220A708022E4
:1003A0000A7080F3108800208AF80000584606AED4
:1003B00000F0B3F89AF800000028FBD00298A84695
:1003C00080F00100029007E04FF000084546B8F1C8
:1003D000000F4FF0000816D100208AF800005846A0
:1003E000214600F0A5F800BF9AF800000028FBD0D5
:1003F0005846214603AA00F0A1F8B0F5403FE3D0EB
:100400000028E3D10125BDF90C20BDF90E3043F6DB
:1004100076013046C0F20001B34601F0A7FC40F27D
:1004200031060020C2F200063070584603F070F822
:1004300040F2B808C2F2000802464046594600F0B1
:1004400064FB00BF307828B90120012101F0E9FAEE
:10045000F8E700BFBDF91020BDF9123006AC43F635
:1004600056012046C0F2000101F080FC00203070EF
:10047000204603F04DF802464046214600F045FB79
:10048000307800287FF414AF0120012101F0C9FA6F
:10049000F6E700BFFEE7022818BF704740F274007D
:1004A00043F6E031C2F20000C0F2000100F0BFBC30
:1004B0000079022818BF704740F23100C2F20000F4
:1004C0000121017070470079002818BF704740F281
:1004D0003000C2F2000001210170704780B56F4604
:1004E000FFF78EFE002080BDD0B502AF41600A68E4
:1004F000044682604868E060C868A06100202074FB
:1005000092E80B001A689047002818BFD0BD44F24B
:100510003241C4F23E312160D0BD0146002001F8D5
:10052000140F51F80C0C82680068D3680022184739
:1005300080688268006893680422184708783F281A
:1005400084BF4FF44030704780B56F464B784FF012
:10055000640E43EA002042F2107358430523C4F2AC
:100560000103A0FB033C46F26963C2F6F603A0FB5D
:100570000303980C1080CCF38D3041F27B43584339
:10058000400C00FB0EF0C0EB1C3050808878C9781E
:1005900041EA0020800844F27401484348F2030114
:1005A000C2F20001A0FB0101C80AA0F57A6013FBAA
:1005B00000F1CB1403EBD17101FB1E009180D080C0
:1005C000002080BD80B56F4682B001680079CA689E
:1005D0000028009218BF01208DF804004A7C22B147
:1005E00001228A74C87402B080BD896909B1684665
:1005F000884702B080BD0160024648685060886844
:10060000906008699061C86843F22131D061C3F2FB
:100610002C210020D16070470146406800224260D2
:100620000020CA60704700F004B800F036B800F04F
:1006300068B8F0B503AF4DF8048D064640689046A3
:10064000D0E901040D46B04218D0B268A168206814
:100650000B699168127B984768B9706832464660AA
:10066000A1682068D1F814C040F26F71C0F2000197
:100670000023E04710B15DF8048BF0BD0020C6E90F
:100680000400A1682068D1F804C02946424600232E
:100690005DF8048BBDE8F0406047F0B503AF4DF85E
:1006A000048D064640689046D0E901040D46B042EC
:1006B00018D0B268A16820680B699168127B9847CE
:1006C00068B9706832464660A1682068D1F814C0E5
:1006D00040F26F71C0F200010023E04710B15DF8F5
:1006E000048BF0BD0020C6E90400A1682068D1F8A1
:1006F00008C02946424600235DF8048BBDE8F0405F
:100700006047F0B503AF2DE9000B064640681D4673
:10071000D0E901049146B042884618D0B268A16879
:1007200020680B699168127B984768B970683246F7
:100730004660A1682068D1F814C040F26F71C0F221
:1007400000010023E04710B1BDE8000BF0BDC5F388
:100750000720C6E90409A1682068D1F808C0EAB2F8
:1007600041460123BDE8000BBDE8F0406047F0B50D
:1007700003AF4DF804BD82B004680079616800F0F1
:10078000FE008A68E1690228009113D161690026A0
:100790008DF80460A9B1936810685D682269002330
:1007A000A8472661666180B1A16903208DF8040025
:1007B00049B90AE091681068C968884703208DF834
:1007C0000400A16909B16846884702B05DF804BB1E
:1007D000F0BDF0B503AF2DE9000F0246087848F2EE
:1007E0000003C4F2110303EB00204FF00008106275
:1007F00082F80080D1614B694EF2001C53628B6914
:10080000C2F82880D3629378CEF2000C23F0030361
:100810005E1C96704E784FF0010E002E04BF43F020
:100820000203937091F90B008D7A00F01F040EFA09
:1008300004F60CF18004430944F8236046F20039C1
:10084000BFF34F8FC4F20009BFF36F8F59F8203008
:1008500040F22C1A23F4803349F8203059F8203024
:100860002B010CF54075C2F2000A2B544AF82020E7
:1008700091F9050091F804B000F01F060EFA06F693
:10088000430944F82360BFF34F8FBFF36F8F59F8CC
:10089000203023F4803349F8203059F820304FEAD3
:1008A0000B132B544AF8202091F9070091F806B059
:1008B00000F01F060EFA06F6430944F82360BFF362
:1008C0004F8FBFF36F8F59F8203023F4803349F8EE
:1008D000203059F820304FEA0B132B544AF82020CF
:1008E00091F9090091F808B000F01F060EFA06F61B
:1008F000430944F82360BFF34F8FBFF36F8F59F85C
:1009000020304FF0004423F4803349F8203059F868
:1009100020304FEA0B132B544AF82020EFF31080BD
:100920008EF3108844F204050B78C4F208052E6893
:1009300024FA03F326EA03032B602B6880F3108864
:10094000106A80F80280106A80F80480106A80F8CB
:100950000980106A80F80A80106A80F80B80106A9B
:10096000A0F81A8008780EFA00F340F2F93003423A
:1009700002D0136A4024DC74136A06241C770B78B7
:100980000EFA03F3034203D0106A4FF478438382D4
:10099000C8784E788B78C00040EA03102EB1032E41
:1009A00008BF40F04000F22600E0E226136A00256E
:1009B0001870106A8671C8690226037B06EA43062E
:1009C000082B136A08BF0A265E73166A4378847878
:1009D00035720678156A06F0FE06022E4FEAC31637
:1009E00064F3451609D1FF236B7000780228106A62
:1009F00008BF46F01006C67116E0EE714068136A33
:100A000086785E7046781D7806F0030605F0FC05D2
:100A10002E441E70C6789E74DE79007806F0A30618
:100A200000F05C003044D8710020D369C2E90300B3
:100A3000C2E90500C86993F90530017859F82360C7
:100A400003F01F0526F4803649F8236059F8236027
:100A5000012606FA05F40CF5C0755B09BFF35F8F3C
:100A600045F823404CF82340D36993F90B3059F8EB
:100A7000234024F4803449F8234059F8234003F0FC
:100A80001F0406FA04F45B09BFF35F8F45F82340A7
:100A90004CF82340D36993F9073059F8234024F4E4
:100AA000803449F8234059F8234003F01F0406FA24
:100AB00004F45B09BFF35F8F45F823404CF82340F3
:100AC000D36993F9093059F8234024F4803449F864
:100AD000234059F8234003F01F04A6405B09BFF3ED
:100AE0005F8F45F823604CF823601C23166A63F37C
:100AF0009F01B170408944F65511C5F24331108110
:100B000000205160BDE8000FF0BD80B56F46D0F801
:100B100020E09EF802C00CF07B038EF80230837850
:100B200003F00303A2EB030C0B44026AC0E9033C8D
:100B3000937843F080039370827802F00302022AD4
:100B400006D10988006A41F47E41C181002080BD40
:100B50000978006AC170002080BDD0B502AF84B0B2
:100B6000EFF303804FF0704101EB006046F200317B
:100B70008015C4F20001425822F48032425041589C
:100B800040F22C11C2F200010C58E06901692069A1
:100B900011B1E0B104B0D0BDC8B1A07800F003013C
:100BA000E068022905D10088216A40F47E40C881AE
:100BB00002E00078216AC870A078216900F0030281
:100BC000881AE16820611144E1600028E2D1206ABE
:100BD000817801F07B0104318170606A00284FF058
:100BE0000000E060D6D0A06A40B1D0E900C2D0E9F0
:100BF0000213CDE900C2CDE9021300E06846E169C5
:100C0000097801600021816080210171E16AC16081
:100C1000616A8847A06A00281CBF9DE81E001EC0AC
:100C200004B0D0BDD0B502AF86B0EFF303804FF073
:100C3000704101EB006046F200318015C4F2000102
:100C4000425822F480324250415840F22C11C2F2F4
:100C500000010C58A07800F00302206A022A03D198
:100C6000018A6FF35F2100E04179A0690191D0B161
:100C7000606901A902F03AFCA0786169A26900F0FC
:100C800003000144101A6161A06134D1606A90B31D
:100C9000A06AE0B1D0E900C2D0E90213CDE902C2F6
:100CA000CDE9041314E0606A28B3A06A40B1D0E92A
:100CB00000CED0E90232CDE902CECDE9043200E027
:100CC00002A8E269127881600260042106E002A8AD
:100CD000E169097801600021816001210171E16A07
:100CE000C160616A8847A06A28B102AC1ECC01606D
:100CF00042608360C46006B0D0BDB0B502AF84B0BE
:100D0000EFF303804FF0704101EB006040F22C12D2
:100D10008115C2F2000255580416296A8A7802F039
:100D20007B028A70696AE1B1A86A40B1D0E900C269
:100D3000D0E90213CDE900C2CDE9021300E0684614
:100D4000E969097801600021816002210171E96A85
:100D5000C160696A8847A86A00281CBF9DE82E0008
:100D60002EC046F20030C4F2000050F8241021F4E6
:100D7000803140F8241050F8240004B0B0BDF0B524
:100D800003AF4DF804BD84B0EFF303804FF0704122
:100D900001EB006040F22C128115C2F2000254589F
:100DA000A178236A01F00301022903D1198A6FF3A4
:100DB0005F2100E059791A79D50602F0380204D58E
:100DC0001D7F65F3861282F040021D7905F0C7058C
:100DD0001D71636A0516D3B1A06A40B1D0E900CE97
:100DE000D0E90263CDE900CECDE9026300E06846B8
:100DF000E3691B78816003600271E16AC160616A26
:100E00008847A06A00281CBF9DE84E004EC046F2ED
:100E10000030C4F2000050F8251021F4803140F871
:100E2000251050F8250004B05DF804BBF0BD80B576
:100E30006F4645F25422C5F24F020260084600F0A8
:100E400003F8002080BDFFFFF0B503AF4DF804BDEF
:100E5000044600F05FF840F2281CEFF310800121F7
:100E600081F31088C2F2000CDCF8001039B940F6AA
:100E70000351C4F2080100220A7040220A70DCF813
:100E800000100131CCF8001080F31088208820B3C6
:100E900040F6000E0021C4F2080E07E00EEB8010B1
:100EA00040F8223020880131814216D2606800EB80
:100EB000C102928850F83130100ADD03D2B2EDD56C
:100EC0000EEB801555F8226026F4803645F8226036
:100ED00023F4803645F82260E0E7EFF3108101202B
:100EE00080F31088DCF8000020B1DCF80000013845
:100EF000CCF80000DCF8000038B940F60350C4F22A
:100F00000800002202708022027081F310885DF8D0
:100F100004BBF0BDF0B503AF2DE9000F81B08346EF
:100F20000088002845D04EF2BB4843F6C44A00254D
:100F3000C4F20108C0F2000A4FF0010905E000BF49
:100F4000BBF800000135854233D2002608E000BF1F
:100F500088F80000012000F012FE0136032EEFD0C9
:100F6000DBF804003AF8162000EBC50189889142AD
:100F7000F3D150F8350098F8001000F0B85009FA95
:100F800006F4B0F1807F04EA010009D10028E4D121
:100F9000012000F020FE98F800002043D8E700BFB1
:100FA0000028DAD0012000F016FE98F80000A043D7
:100FB000CEE701B0BDE8000FF0BDB0B502AF04460A
:100FC00008784FF20002C4F2090202EB002020610F
:100FD0002160886800256060087B4FF0010C20725A
:100FE000C86944F204026063086AA563E063EFF332
:100FF000108E8CF310880B78C4F20802C3F1090339
:1010000010680CFA03F39843106010688EF3108890
:10101000204600F0BEF844F64311C5F249210020F5
:10102000C4E90555C4E9075584F8295084F82A50C5
:1010300084F82B5084F82C50E160B0BD9C4601230D
:1010400080F82AC000F06AB99C46002380F82AC0C4
:1010500000F064B9B0B502AF044600690025C5715F
:101060002168204600F095F894F82600216984F85C
:101070002800A069B322C4E90750002084F82C504E
:1010800084F82A50CA71B0BD0346416000201A722C
:1010900070478446C0E90D130020CCF83C2070470F
:1010A000C0684BF2BD62CAF6B6521044B0FA80F086
:1010B000420900200A707047B0B502AF04460069CB
:1010C0000025C5712168204600F063F894F82600D9
:1010D000216984F82800A0694EF28013C4E9075002
:1010E000B32084F82C5084F82A50C8712069CEF2BD
:1010F0000003C5712068E56090F91110012001F02E
:101100001F0200FA02F2490943F82120BFF34F8F72
:10111000BFF36F8F216891F90E1001F01F0200FAE2
:1011200002F2490943F82120BFF34F8FBFF36F8FBD
:10113000216891F9101001F01F0200FA02F249092A
:1011400043F82120BFF34F8FBFF36F8F216891F9D0
:101150000F1001F01F0200FA02F2490943F82120A2
:10116000BFF34F8FBFF36F8FEFF3108180F31088C1
:10117000226844F204031278C4F20803C2F109029F
:101180001D68904028431860186881F3108800207B
:10119000B0BDF0B503AF4DF8048D02691F23137085
:1011A00002695F2313700269DF2313700268036909
:1011B000526A08251279772442F0E0021A74026814
:1011C0000369526A4EF2001CD278CEF2000C42F053
:1011D000E0025A7402680369526A40F22C1E927847
:1011E000C2F2000E62F306159D7002680369526A2E
:1011F0004FF0010815785278013DB5FA85F56D0973
:1012000045EA420242F00402DA7002680369526859
:1012100044F24025C0F20F05AA4208BF6FF008044F
:101220005C710269002393710269B323D3714A7B15
:1012300091F9116013010CF54072935546F2003399
:101240004EF82600C4F2000353F8264006F01F05AE
:1012500024F4803443F8264053F8264008FA05F475
:101260000CF5C0757609BFF35F8F45F826404CF842
:1012700026404C7B91F90F60240194554EF82600CE
:1012800053F8264024F4803443F8264053F826408F
:1012900006F01F0408FA04F47609BFF35F8F45F8DF
:1012A00026404CF826404C7B91F91060240194555F
:1012B0004EF8260053F8264024F4803443F82640A4
:1012C00053F8264006F01F0408FA04F47609BFF329
:1012D0005F8F45F826404CF826404C7B91F90E1064
:1012E000240154544EF8210053F8212022F4803276
:1012F00043F8212053F8212001F01F0208FA02F2DE
:101300004909BFF35F8F45F821204CF8212000697F
:101310009F2101705DF8048BF0BDFFFF90F808C0BD
:10132000C0E90512BCF1010F0BD101794FF0000C9F
:1013300043EA410180F82410012180F825C080F89B
:101340002610D0B502AF81B04EF22001002B18BF9D
:10135000012380F82930C4F2010109680091009945
:1013600001F00F210091DDF800E0DDF800C0016917
:101370000B7C90F82C40002C42D00021C0E90721C2
:1013800090F8262080F8281080F8272080F82B106D
:1013900080F82D1080F82E1080F82F1080F8301073
:1013A00001680269496A0B784978013BB3FA83F313
:1013B0005B0943EA410141F00401D17001694A79B6
:1013C00042F001024A71016891F90F1000290DD411
:1013D000C9B201F01F02012303FA02F21C2303EA3F
:1013E000D1014EF20013CEF20003CA500169BF22B0
:1013F000CA7190F82C10A9B1002180F82C1015E0CA
:10140000CEF30322A2EB1C6203FA02F2042A07D3F2
:10141000920800BF91F90130002B0AD5013AF9D1A9
:10142000082103E00069022141700021084601B053
:10143000D0BDB322CA7182699FE7FFFFEFF303803B
:101440004FF0704101EB006046F200328015C4F2AB
:101450000002835823F4803383508058EFF30380D5
:1014600001EB006040F22C118015C2F20001085817
:1014700090F82D10002938D0C16903296FD8DFE812
:1014800001F08002556090F82A1000295FD00168B1
:101490004FF0010C91F90F104EF2801301F01F0272
:1014A0000CFA02F24909CEF2000343F82120BFF3FF
:1014B0004F8FBFF36F8F0169CA7942F08002CA7102
:1014C00001690A7942F010020A7101690A7902F091
:1014D000F7020A71016904224A7001694A7902F02F
:1014E000FE024A7180F82CC039E08169022904D8D3
:1014F00001690A7942F040020A71C169012909D1E2
:1015000001690A7942F010020A7101690A7942F010
:1015100008020A7181B00169C97C8DF803109DF839
:101520000310012180F82D1001B0704701690A797C
:1015300042F010020A7101690A7942F008020A7148
:101540000DE001690A7942F040020A7107E0016981
:101550004A7A02F0F7024A72016908224A70D0E919
:101560000412C97C036AD154D0E907210131013A40
:10157000C0E9072118BF70470069017901F0BF0178
:101580000171704780B56F46EFF303804FF07042F2
:1015900046F2003E02EB0060C4F2000E801550F8E7
:1015A0000E3023F4803340F80E3050F80E00EFF385
:1015B000038002EB006040F22C128015C2F20002A0
:1015C000105890F82720CAB190F82610032906D1A8
:1015D00090F82810022902D190F8301089B190F8C3
:1015E00024100269917490F8281090F82720013196
:1015F00080F82810511E80F8271080BD90F829200F
:1016000002B180BDC2696AB1D0E904C3026A9A5CC2
:101610008CF81220D0E907320132013BC0E90732D1
:1016200018BF80BD0269D37903F07F03D3710269CB
:101630006FF0BE0392F90710B1F1FF3F03DC002BFE
:1016400003F10103F6D1016891F910105EF8212031
:1016500022F480324EF821205EF82110016891F9C1
:10166000101000290DD4C9B201F01F02012303FAA2
:1016700002F21C2303EAD1014EF28023CEF20003D2
:10168000CA500069C17941F04001C17180BDFFFFBE
:10169000EFF303804FF0704101EB006040F22C113A
:1016A0008015C2F20001085890F8291031B190F865
:1016B0002710012902D190F8301081B3C16971BBA4
:1016C00090F82A1019B301684FF0010C91F90F102E
:1016D0004EF2801301F01F020CFA02F24909CEF219
:1016E000000343F82120BFF34F8FBFF36F8F0169D1
:1016F000CA7942F08002CA71016904224A70016904
:101700004A7902F0FE024A7180F82CC007E00169B4
:101710004A7A02F0F7024A72016908224A700169A6
:10172000CA7902F0BF02CA7100696FF0BE0100BF42
:10173000C279520603D5002901F10101F8D1EFF376
:1017400003804FF0704101EB006046F200318015DC
:10175000C4F20001425822F480324250405870478F
:10176000F0B503AF4DF804BD82B0EFF303804FF046
:10177000704101EB006040F22C118015C2F20001B3
:101780000C5821694A7A4B7A02F01F0003F0E003FB
:101790000F2802F003024B7201D83AB939E02169EF
:1017A0004B785B0658BF42F001027AB3012584F8FA
:1017B0002B5020690026C67121682046FFF7E9FCFE
:1017C00094F82600216984F82800A069C4E907601C
:1017D000B32084F82C6084F82A60C871A06B0028BC
:1017E0001ABFD0E90012CDE900126846E16B05711D
:1017F0000160616B8847A06B00281CBFDDE9001207
:10180000C0E90012002084F82B0057E04A78520605
:1018100020D401070CD494F82C10002918BF10F024
:1018200004004BD0254615F82B0F40B301212FE0C3
:10183000254615F82B0F10B394F82600002184F8E4
:101840002800A069C4E9071084F82C1084F82A1035
:1018500001211AE0012084F82B000820487020683C
:101860002169406A00780138B0FA80F040090230FE
:10187000C8702069417941F0010141711EE094F87E
:1018800029000221002808BF03212069B322C27168
:10189000A06B00281ABFD0E90023CDE900236846D9
:1018A000E26B01710260616B8847A06B00281CBF6E
:1018B000DDE90012C0E9001200202870EFF3038078
:1018C0004FF0704101EB006046F200318015C4F228
:1018D0000001425822F480324250405802B05DF874
:1018E00004BBF0BD4EF22000C4F20100817940F249
:1018F00014020068C2F2000252F82110C0F3026024
:1019000021FA00F040F2B421C2F2000108607047F1
:10191000F0B503AF4DF8048D4EF2FE3CC4F2010C5D
:101920004CF204124AF20350C4F20102ACF8000077
:101930000120108010880028FCD147F2000301200C
:10194000C4F2000322F8040C9860186040F21403FB
:1019500042F6005E41F200244CF200284EF22001D3
:10196000C2F20003C0F2311EC0F27A044FF4004507
:101970000026C0F6EB38C4F20101C3E900E4C3E974
:101980000256C3E904688D790C6853F82550C4F3F6
:10199000026440F2B42E25FA04F4C2F2000ECEF82E
:1019A00000408CF882008E75087FC007FCD042F2A0
:1019B0001170088100208872087F8006FCD5032002
:1019C000107641F22120C2F20100086005208871E2
:1019D00088790A6853F82000C2F30262D040CEF83A
:1019E00000000120087481F832004FF42540ACF863
:1019F00000005DF8048BF0BDD0B502AF43F22800C3
:101A0000C4F2080000240470012000F0E4F84EF253
:101A1000BB41C4F2010101200C70BDE8D04000F0D0
:101A2000AEB8484340F2B421C2F2000109684CF656
:101A3000002348F63812C3F69A33C0F24102B3FBD2
:101A4000F1F1904206D24FF47A725043B0FBF1F0BC
:101A5000800807E08900B0FBF1F0904207D24FF414
:101A60007A714843002808BF704700F004B84FF06F
:101A7000FF3000F000B801380028FCD17047FFFFAC
:101A8000F0B503AF2DE9000B46F22018C4F20008B0
:101A9000B8F80000B8F8201040F2E80501EA0009A3
:101AA0001FFA89F60024C2F2000502E00134102C6E
:101AB0000AD026FA04F0C007F8D055F824100029FF
:101AC000F4D0E0B28847F1E7A8F81090BDE8000B29
:101AD000F0BDFFFFF0B503AF4DF8048D84B048F2C0
:101AE00048080320C4F2000800F075F86FF0FF000A
:101AF000C8F800004FF0FF3043F6EC340390CDE916
:101B000001000021C0F20004012201A803E000BF8F
:101B1000013160290FD034F81130002BF8D04D0975
:101B200001F01F0350F8256002FA03F326EA0303CD
:101B300040F82530ECE74EF280320021CEF2000270
:101B400050F8213008EB8106B36242F821300131B0
:101B50000329F5D1032000F012F846F200310020ED
:101B6000C4F2000134F81020002A18BF41F82020E8
:101B700001306028F6D104B05DF8048BF0BD01227D
:101B8000EFF3108182F3108840F2AC22C2F200021F
:101B900032F8103023B132F81030013B22F8103007
:101BA00032F8102012B181F3108870474EF2FE3CDB
:101BB000C4F2010C43F6EC42BCF80030C0F2000263
:101BC00032F8100043F4254222EA0000ACF800008D
:101BD00081F31088704780B56F460122EFF31081C2
:101BE00082F3108840F2AC22C2F2000232F81030C8
:101BF0008BB94EF2FE3C43F6EC43C4F2010CC0F24A
:101C00000003BCF800E033F8103043EA0E0343F45D
:101C10002543ACF8003032F81030013322F8103090
:101C200081F3108880BDFFFF80B56F4600F006F895
:101C3000FEF754FCFEE700BE7047FFFFB0B502AFF1
:101C40004EF6085040F20004CEF200004FF470014E
:101C5000C0F20004C0F8801004600020FEF71BFCF6
:101C6000FFF756FE01200125FEF715FC206840F223
:101C7000BC21A0F5806080F30A8840F23000C2F2F7
:101C80000000C2F20001091A01F02CFC40F2000031
:101C900040F21001C2F20000C2F200010A1A44F23E
:101CA0007001C0F2000101F021FC40F21004C2F208
:101CB0000004204600F03AF8204600F04DF840F2CB
:101CC000100040F21001C2F20000C2F20001091A35
:101CD0008A10012A09DBA0F10404C8BF8D1000BFDF
:101CE00054F8040F8047013DFAD1FFF7FBFDFFF7E1
:101CF00083FE0320FFF76FFF40F60E510C20C4F265
:101D000008014FF6FF7200BF013821F8022FFBD106
:101D10000320FFF734FF0220FEF7BDFBFFF7DAFEDA
:101D20000020BDE8B04000F000B87047D0B502AF69
:101D300005490446054A01F0D9FB054805492044F8
:101D400001F0D0FBD0BD00BF8040000001000000CA
:101D500001000000000000000249401A024908602A
:101D6000704700BF08000000B802002082B0B0B584
:101D700002AF88B004461048019002208DF802009E
:101D80006FF00040C7E90223204407F10802002554
:101D9000059068460695CDE90255ADF800500494CB
:101DA000079200F013F8002800D4255408B0BDE8CD
:101DB000B04002B0704700BFBD1D0000D1E9042350
:101DC0009A421EBF531C0B6110707047F0B503AFF1
:101DD0002DE9000F97B0824680781692800705D4CF
:101DE0004FF0FF3017B0BDE8000FF0BD16984FF070
:101DF0000009DAF804808B4615900FAA501D079051
:101E0000501E05900A91CDE90DA8594611F8010B15
:101E1000252803D08B4648B900F0AABD9BF8015095
:101E20000BF1020B252D08D1DDF838805146C04753
:101E300009F101090028E8D5D2E7002400264FF077
:101E4000000C4FF0000A1FFA8AF11F290DD8A5F1E6
:101E50002700092826D8DFE800F0990A0A0A050AAF
:101E60005F0A0A624AF0020A4BE07F290DD8A5F109
:101E700030024806092A1CD8002848D40CEB8C00F4
:101E80004AF0200A02EB400C80E04C2D3CD0682D3B
:101E900048D06A2D38D07A2D18BF742D76D06C2D8D
:101EA00047D079E0202D2CD0232DE0D14AF0100A24
:101EB0006CE0242D44D07A2D68D02E2D57D04C2D97
:101EC00022D0682D2ED06A2D1ED06C2D31D0742DCD
:101ED0005CD02A2D60D1002C58D115990A1D15927D
:101EE0000968002850D4B1F1FF3FDDBF4AF0280A4D
:101EF000C1F1000C00244AF0200AC4BF00248C4623
:101F000044E04AF0040A41E04AF4207A3EE006EB5D
:101F1000860002EB400639E04AF0080A36E04AF053
:101F2000010A33E00AF480704AEA400040F4807A03
:101F30002CE00AF080004AEA800040F0800A25E0A8
:101F4000DCB116983246159011F0400508BF624684
:101F50000A9815A9E04600F015FD1598C446011D24
:101F600015910068002D0CBF844606460EE000283F
:101F700000F1FE844AF0400A08E0644600264FF073
:101F8000000C4FF0000A01E000240E461BF8015B34
:101F9000002D7FF458AF00250A98CDF82CC03CB135
:101FA00016992246159115A900F0ECFCDDF82CC01D
:101FB00045F02000002E26EAE678A0F1650148BF32
:101FC0002AF0400A032901D3612837D11599073136
:101FD00021F0070101F108021592421B0C9291EDCC
:101FE000000B0FAC612814D150EC106B30238DF82E
:101FF00041300546C0F30A5242EA06016FF31F550D
:10200000294334D0002A6CD0312311468DF8413059
:1020100068E05FEA4A6158BF4FF00608C1B2CDF8E8
:102020002080662925D0DDF8388065292AD10898D6
:102030004AF4805A00236526411C2AE0EBB20FAA1D
:10204000A3F16F01062932D80C9308234FF0000E3C
:10205000DFE811F0BD020700B502B5026B02B50260
:102060009B024AF0100A10234FF0780EAFE209925B
:102070003BE043464AF4005A012266261121DDF86E
:10208000388007E0089A1106114608BF0121861E14
:1020900000230022C9B22046112928BF112100F0D7
:1020A0005BFD0F9B8646DDF82CC00225ABE0692B5B
:1020B00018BF642B40F022821FFA8AF05FEA0A619F
:1020C00000F1288215990B1D1593D1F800E0C10588
:1020D00040F12882800554BF0FFA8EFE4FFA8EFE23
:1020E00020E20121A1F2FF310991C10F5FEA4A60AC
:1020F0008DF8401002D44FF0000848E0B8F10C0F02
:1021000002D94FF00D0842E03320A0EB880208917D
:10211000022000210193039201F002FA424206924A
:102120004FF000028A410492441E61F10000039ABC
:10213000284002900120002101F0F2F9024606EA4F
:102140000400101ADDF82CC00FAC029871EB0000EF
:102150000FD34FEA88000392C0F134020291304657
:10216000294601F0F0F9DDE90212C007DDF82CC0C4
:1021700008D0B6184D41B5F5801F22BF0198013037
:102180008DF8410006980899064004980540099882
:102190004AF4C05AB0F5806F12D156EA0500CDF866
:1021A00020804FF008004FF00E0E08BF0420DDF82D
:1021B00038804FF48063702608448DF840002BE08F
:1021C0001220411F16D016F00F0201D188450BDBFB
:1021D0000C9BD31A57330A2A38BF02F13003235419
:1021E0008845C8BF41468846310941EA05762D0930
:1021F0000138E6E7CDF82080702601254FF00E0E5D
:10220000DDF83880099B13F1090F07DA13F1630F2A
:102210000DD213F57A7F08D8042509E0092B07DDD4
:10222000632B04D9B3F57A7FF6D2032500E00225AB
:102230009DF84010C8071FFA8AF008D15FEA8A7239
:1022400007D4420707D400220692012206E02D227D
:1022500002E02B2200E020220692002211F00C0F57
:102260000B921BD00B9A0420002A18BF0320844530
:102270001BDD0C9D5FEA0A711BD4DDF834A0A0EBD6
:102280000C0420205146C04700283FF5A9AD013479
:1022900009F10109F5D30B9A00260EE01AF4405F0C
:1022A00002962AD0DDF820804AE00026DDE90C5AAB
:1022B00003E0ACEB0006DDF834A03AB906985146CD
:1022C000C04700283FF58CAD09F101099DF8400099
:1022D000DFF8AC460007DFF8A40658BF04462078B4
:1022E000002800F03383401B5146C0B2C047013480
:1022F00009F101090028F2D572E5089E0121012E9D
:1023000098BF0E465FFA8EF131B10A191279302A60
:1023100002D1AEF1010EF5E7C00648BF314613F118
:10232000040F0BDBB34209DA8B424AF4005AAEBF0A
:102330004FF00008D84301EB000801E0A1F10108CB
:102340001FFA8AF15FEA8A404FEA0150049109932B
:102350000195039006D400284FF0050058BF0320D4
:10236000284403E0581C012BB8BF012008F10101EB
:10237000DDF834A0B8F1000F049C08BFC4F30011CD
:102380000B9D85F001028B180344BCEB03064FF054
:102390000003D8BF1E4614F0090FCDF820E013D17A
:1023A00096B108441044A0EB0C040E9A202051462C
:1023B000904700283FF514AD013409F10109F4D329
:1023C000DDF820E000260B9D55B9069851460E9A7F
:1023D000904700283FF504ADDDF820E009F1010940
:1023E0000398002801D40E9C13E00E9C3020514627
:1023F000A04700283FF5F4AC0C985146C0F1780096
:10240000C0B2A04700283FF5EBACDDF820E009F1B1
:102410000209049800070CD45EB1B1443020514643
:10242000A04700283FF5DCAC013EF7D1DDF820E005
:1024300000260498800430D49DF8410031281EBF46
:102440009DF8401001F0EF018DF840105146A04773
:1024500000283FF5C5ACB8F1010FC0F2F8802E207E
:102460005146A04700283FF5BBAC09F10205012405
:10247000E0B28045C0F2F2800899C9B288420D9955
:102480002FBF30200FAA104440790E9A9047013593
:10249000013400F04FFBEBD5A4E40999C8F1000822
:1024A000079821EAE17A0844CAF100040B905FFA28
:1024B0008EF00D460C90012C08D1DDE90D122E2076
:1024C000904700283FF58CAC09F1010929194FF01C
:1024D000300004D40C9A9142BCBF0B98005DC245F9
:1024E0005BDDDDE90D129047AAF1010A013409F123
:1024F000010900F01FFBDED5FFF774BC632B0C93C2
:102500005DD115980124011D159100688DF83C00DE
:102510000FAD1FE08005159800F1A680011D1591F3
:10252000D0F800E04FEAEE73A6E01598011D159172
:102530005FEA4A6158BF4FF0FF3805684146DFF84F
:102540003804002D08BF0546284600F0F8FADDF8EB
:102550002CC004465FEA0A7000F1E581A046A4455C
:1025600038BFE046DDF834A0A44540F2DB810E9A86
:10257000202051466646904700283FF531ACB446CE
:1025800009F10109A6F1010CEEE74FF6EF700AEA36
:10259000000A0A234FF0750E19E00131C0F02681C0
:1025A0009DF84110DDE90DA8352906D840F02081BD
:1025B0009DF84010C90600F11B81312018E17828F0
:1025C00040F02C81C5F17800AE4640F010034FF684
:1025D000F9700AEA00055FEA0A600AD41598011D3D
:1025E00015910068E9050AD5A90554BF80B2C0B2AB
:1025F00005E0A805159804D4011D15910068002177
:1026000007E0073020F007010C46496854F8080B32
:10261000159450EA010408BF2AF016050AD02C468A
:102620001546764600F062FADDF82CC0A0EB050AEC
:1026300035463AE05FEA4A64F1D5012EEFDA4FF60B
:10264000E9700AEA00044FF0000A75462DE004988C
:10265000C00600F1F48009F1010501E0DDF834A0C5
:102660004FF47A790C98F5E0073020F00700014626
:10267000436851F808EB1591002B8EEAE37083EA6A
:10268000E37148BF4AF4806AB0EBE37061EBE37139
:102690002AF0100453EA0E0371D00A23164600F004
:1026A00025FADDF82CC0A0EB060A600602D421460C
:1026B00050460BE04FF6FE7004EA0001C24550465A
:1026C00004DA4046002D08BF24F011018AB2C90681
:1026D00005D440F20641114018BF012103E0022158
:1026E000002D08BF01210E1810071FD4D0070C922F
:1026F00007D0D0466645BEBF0AEB0C00A0EB06082B
:1027000066463446B445C8BF644666450CDADDE922
:102710000D122020904700283FF562AB013609F1E9
:102720000109DDF82CC0F0E70C9A2646D00614D437
:1027300040F2064002422CD090074FF02B0058BFC9
:102740002020510548BF2D20DDE90D14A0470028A9
:102750003FF546AB09F1010920E0DDE90D1230201B
:10276000904700283FF53CABADB1DDE90D14E8B270
:10277000A04700283FF534AB09F102090EE05FEAFB
:102780004A637FF58AAF012EBFF687AF4FF0000A8C
:102790008BE70E9C04E009F101090E9CDDF82CC0CA
:1027A000ACEB0606D0450ADD0D993020A047002885
:1027B0003FF516ABA8F1010809F10109F2E7059808
:1027C000CAF10004002500EB0A08DDF834A0AC4291
:1027D00009D018F8050051460E9A9047013D00288F
:1027E000F5D5FFF7FDBAA9EB0509ADE0DDE90DA8C8
:1027F0005146C04700283FF5F3AA049909F10100AA
:10280000C90609D544B92E205146C04700283FF5D6
:10281000E7AA09F1020999E0814697E0DDF834A0C2
:102820002520DDF838805146C04700283FF5D8AA5A
:102830000C985146C04709F10209FFF7FBBA2E2058
:102840005146A04700280C983FF5CAAA09F1020595
:102850004FF47A7902990E9A081A5146C0B29047FD
:1028600000283FF5BDAA0998002808D405D19DF895
:102870004000C00603D4002009902B2003E00998F3
:10288000404209902D200E9A5146904700283FF56E
:10289000A7AA0198042810D3099C51460E9AB4FBAC
:1028A000F9F808F13000C0B2904700283FF598AA27
:1028B00008FB194405F1030904E005F102090328A6
:1028C00052D1099C4FF06408B4FBF8F50E9A05F15B
:1028D00030005146C0B2904700283FF581AA05FB61
:1028E000184409F101090A200E9AB4FBF0F551468B
:1028F00005F13000C0B2904700283FF571AA05EB02
:10290000850009F10109A4EB400404F13000DDF871
:102910003880C0B25146C04700283FF561AA09F18E
:10292000010913E0C446A144ACEB040654B115F808
:10293000010BDDE90D129047013C00F0FBF8F5D5E5
:10294000FFF750BADDF834A0DDF83880012EFFF62D
:102950005CAA20205146C047013E09F10109B0F1AF
:10296000FF3FF3DCFFF73CBA099C0228BBD2CCE75F
:102970004846FFF737BA00BF9338000072380000AE
:102980008F380000F0B503AF2DE9000782465648A6
:1029900089464FF001084FF0010C5546944580F2EE
:1029A0009F802B4613F8014B252C03D0002C1D468D
:1029B000F7D195E06C780235252CF2D000264FF047
:1029C000000E0023B1B21F2908D8A4F1200110295C
:1029D00006D808FA01F1014245D101E07F290CD85F
:1029E000A4F13001092915D803EB830146F0200634
:1029F00004EB4101A1F1300335E04C2C23D0682CCD
:102A000024D06A2C1FD07A2C18BF742C2BD06C2C9D
:102A100023D033E07A2C26D02A2C18BF2E2C01D1BB
:102A2000002320E04C2C0ED0682C0FD06A2C0AD04A
:102A30006C2C12D0742C16D0242C1FD1BEF1000F98
:102A400016D19E46ECE746F420760CE006F4807141
:102A500046EA410141F4807605E006F0800146EA4D
:102A6000810141F0800615F8014B002CAAD104E049
:102A70006345D5D16324E64600E00024BEF1000F93
:102A80002ED0E6457FF48AAF44F02003A3F1650120
:102A9000032901D3612B0BD1D9F80010073121F0A4
:102AA000070101F10803C9F800300CF1010C74E7CB
:102AB000E3B2732B0ED0642B18BF692B08D13106FB
:102AC00008D5D9F80030B1B2890507D40433EAE754
:102AD000632BF4D1D9F800100B1DE4E7D91DDEE714
:102AE000BDE80007F0BD00BF89280100F0B503AFC5
:102AF0002DE9000B03F01F08C3F1370914460E46F9
:102B00000546284631464246002300F073FE00FB8E
:102B10001852092A88BF4A44303204F8012BB5EB19
:102B20000802054676F100020E46EAD22046BDE8CC
:102B3000000BF0BD01464FF0FF3000297047D0B5C3
:102B400002AF4218034629B11C7814B10139013390
:102B5000F9E71A46101AD0BDF0B503AF2DE9000F02
:102B60009DB056EC108B8B4635464FEAD67C6FF302
:102B70001F55C6F30A5658EA050108BF002E0CD0AF
:102B800040F2FF74A64213D108224FF0000B002937
:102B900008BF042202EB0C0108E000223021417141
:102BA0000CF1020182714FF0010B02600171FFE133
:102BB0000024A6F23549022E38BF0124002918BF8F
:102BC000012121431091002E18BF05F580154FEA11
:102BD000850104BF4FF6CC39CFF6FF7941EA9874EE
:102BE0004FEA8801B9F1000F129108F00101049138
:102BF000CDE908C0CDE905B30A9213943CD4484608
:102C000000F020FC0646B9F1030F88BF013E3046B4
:102C100000F024FC14AC82463046214600F080FBD4
:102C200018A81AA900F0EAFAA6EB09005044B14628
:102C300000F17C03404600F0DBF98246152E11912D
:102C400051D8129E139CDDF840803046214600F09A
:102C5000BFF9820842EA817120F003000844404233
:102C6000F0425CD13046214600F0D0FA00211091AC
:102C7000484528BF012139E0C9F1000B584600F052
:102C8000E7FB824619F1010018BFAAF1010AABEB7C
:102C90000A0B584600F0E2FB14AC064658462146A3
:102CA00000F0D2FA18A81AA900F0A8FAAAEB0600B8
:102CB00000F17D03404600F09BF9D1440646BAF18D
:102CC000010F119114D80498DDF814B00A9D40B199
:102CD000DDE91A0101381A9061F100001B90002013
:102CE0001090012130E00020002110900A9D41E069
:102CF000DDF814B0BAF13E0F22D84FF0FF304FF09C
:102D0000FF31524600F00CFC139A22EA0101129A9C
:102D100022EA00000843B0FA80F0410911E004986B
:102D20000A9D98B96FEA0800801964F1000100F06B
:102D30006DFA002148454FF0000028BF012018E03F
:102D400000210A9D00201090B24613E046F00200D8
:102D5000214600F05BFADDE91A1C4B1E6CF1000203
:102D6000484538BF0B461A9338BF62460021002001
:102D70001B92109058460F9165B11199504600F082
:102D800025FA0699494408440128D8BF0120834503
:102D9000B8BF5846CDF81C900025DDE91869DDE97B
:102DA0001A410B900020CDE9120020460E940D919F
:102DB00000F005F904468B4630464946CDF8309080
:102DC00000F0FDF88046001B894671EB0B000DD327
:102DD0001199504600F0FAF90B99884229DD2A46EC
:102DE000012519B9119850EA0A0025D011995046C9
:102DF00000F0E5F8119112990F9AC9B2B1FA81F178
:102E000049090A4000EB80010F92AAEB410112919F
:102E100008EB8801109AC6EB41014646B1FA81F1F0
:102E2000824649090A40139910920131139159467B
:102E3000BBE7DDF844B004E04FF0000A4FF0000BB0
:102E40001546109CDDF83C90E00734D0DDF830806A
:102E5000CDE910453046414600F0B1F8044600EB9C
:102E6000800040420D467142B1EB400F1DD1DDE9BB
:102E70000D1000F0A4F8CDE90D105046594600F0B1
:102E80009EF88B4612992646A846C9B2B1FA81F13E
:102E9000490909EA010900EB8001AAEB41011291FD
:102EA0001399824601311391D4E7DDE91045CDF83D
:102EB0003080CDF83C900798139901EB00091298E7
:102EC000C0B2411F18BF0121EA070CD10C9B8AEA4E
:102ED000060283EA0B031A4305D1049A82F0010229
:102EE0002240012A69D10F9A82F001021143002287
:102EF00041EA0A01042888BF012201EA02041AEB10
:102F000004064BF1000A3046514600F05FF9804656
:102F1000FCB10B9988451DDD0A9840B106984844DC
:102F2000404420EAE07105988842B8BF01468845D0
:102F300010DD701D0C464AF100010A22002300F04A
:102F400059FCA8F1010809F101098A460646214603
:102F500000E00B998845B8BF41460FFA89F0DDF8CB
:102F600024900FFA81FB0BF10405A0F10108002465
:102F70005C4512DA304651460A22002300F03AFC42
:102F80008A4600EB80010134A6EB4101064641F080
:102F9000300109F80510013DEAE709EB0B000021BB
:102FA0004171089889F8040008EB0B00C9F800008B
:102FB00058461DB0BDE8000FF0BD01249FE780B565
:102FC0006F4600F005F8C00840EA4170C90880BDAE
:102FD000F8B504AF02AA0092044A4FF0CC3300F0D7
:102FE00045FADDE9020104B080BD00BFCDCCCCCCF8
:102FF000F0B503AF2DE9000F8BB01E469246D2E923
:10300000002308AC0094490041EAD07445002846EA
:10301000214600F02BFADAE902238B46059021467F
:10302000DDE9088906A80090284600F01FFA18EB91
:10303000000849EB0109DDE90801B8EB000079EB74
:1030400001004FF0000038BF0120DDE906124D1CE1
:1030500042F10004002808BF1446079408BF0D463B
:103060000296413E9AE80F0012EB0802049643EBE9
:1030700009030096059E069580194FF000065BEB4C
:103080000100CDF80CB052F1000043F10001B0EBAB
:10309000080271EB090238BF01266A1C44F10003E3
:1030A000002E04BF23462A4600F001FABA68C2E99E
:1030B00000013869012831D1DAE90201DAE900CEEC
:1030C000B8EB0006059B69EB0102701E62F100017E
:1030D000B3EB0C03039BDDF810A073EB0E03DDE9EB
:1030E00006544FF00003CDF800A038BF0123002B99
:1030F00004BF30461146B8EB000279EB01024FF0F5
:10310000000638BF01266A1E64F10003002E04BFCA
:103110002A46234600F0CBF9544649E0029B9AE840
:103120000340A3F14006039C059BDAF80CA000962F
:10313000660046EAD376D0EB430076EB01004FF011
:1031400000064FEA490040EAD8734FEA480040EAD7
:10315000D474DDE9062C38BF0126B4EB0E0E63EB08
:103160000A05BEF1010065F10001002E04BF2946E9
:103170007046251A73EB01054FF0000538BF012595
:10318000B4EB080473EB09034FF0000338BF0123CD
:1031900043EA42044FEA4C0343EAD276621E66F1E8
:1031A0000003002D04BF2246334600F080F9049C42
:1031B000FA68C2E900014046DDE906234946009469
:1031C00000F075F90BB0BDE8000FF0BDF0B503AF2E
:1031D0004DF804BD00230A2401220A25461B71EB89
:1031E000030607D3A5FB045603EB8303013206EB6A
:1031F0004303F3E710465DF804BBF0BD2246CDE97A
:1032000000102946109802907047FFFFF0B503AFF9
:103210004DF804BD0A4B02460A4D4FF0FF304FF007
:10322000CC3CA2FB0364013002FB0C4201FB0321F6
:10323000721B71F133323246F3D35DF804BBF0BD3B
:10324000CDCCCCCC34333333F0B503AF2DE9000F04
:1032500089B08A461A21B0FBF1F2054602FB01FB58
:103260002C4800EB02105D4502D100F0D3F84DE090
:1032700006A9294A0091A5EB0B0152F8314002EB57
:10328000C101D0E902234E680168039141682046DC
:103290000291314600F0EAF8804604A8DDE90232E6
:1032A000894600902046314600F0E0F80E46DDE900
:1032B00004120390002018EB010859EB020940F1B9
:1032C0000000012801D100F09DF8284600F0C6F862
:1032D0000446584600F0C2F8241A03983146424684
:1032E0004B46009400F0E3F81E226FF0030302EA5D
:1032F000450203EA9503094DEB5800F093F800F0FE
:1033000099F8009400F0D3F8CAE9020109B0BDE8C9
:10331000000FF0BD083D0000D83D0000A83E0000B1
:10332000F0B503AF2DE9000F89B08A460546193084
:103330001A21B0FBF1F2304802FB01F600EB02105B
:10334000AE4202D100F066F851E006A92B4A009186
:10335000711BD0E9009B52F8318002EBC101D0E92A
:1033600002234C684046214600F080F8CDE9021067
:1033700004A8B9F101026BF1000300904046214618
:1033800000F074F88B46DDE903310446002011EBB0
:103390000308059A029952EB010940F10000012847
:1033A00001D100F02FF8304600F058F806462846C4
:1033B00000F054F8361A2046594642464B460096CD
:1033C00000F075F86FF003030D4C03EA95031E221D
:1033D00002EA4502E35800F025F8013041F100010E
:1033E00000F028F8009600F062F8CAE9020109B07E
:1033F000BDE8000FF0BD00BF003F0000D83D000059
:10340000F03F0000DDE906010130069041F10000C7
:103410000790704790E80E00C0688AE80E00CAF86E
:103420000C00704723FA02F202F00302801841F107
:1034300000017047DDE90623CAE90001404649461C
:103440007047FFFF01494843800C70474134010039
:1034500001494843000D7047FB2E0B0002494843C9
:10346000012101EBD04070474F931200F0B503AF3C
:103470004DF804BDA3FB0145D7F808E0A2FB0116F7
:10348000A2FB00C25218744145F1000511462646C0
:10349000E3FB0016A3FB0003801854EB030045F187
:1034A0000000CEE9006060465DF804BBF0BDF0B5F9
:1034B00003AF2DE9000BD7F808801646894605466C
:1034C000C8F140023046194600F02AF806460C467C
:1034D00028464946424600F036F830432143BDE8CD
:1034E000000BF0BD0A46002100F00AB8D0B502AFCB
:1034F00000239A4203D0CC5CC4540133F9E7D0BD19
:1035000000239A4208BF7047C1540133F9E7FFFF17
:10351000034613F8012B002AFBD1181A0138704713
:10352000930641BFA2F1200100FA01F1002070478B
:10353000002A1FBF9140C2F1200320FA03F3194370
:1035400018BF90407047930641BFA2F1200021FAB6
:1035500000F000217047002A1FBFD040C2F12003B5
:1035600001FA03F3184318BFD14070472DE9F04F1B
:10357000DDF824A0844689B1D2B183B3B1FA81F4D5
:10358000B3FA83F52C1B202C54D3BAF1000F18BFCB
:10359000CAE900C100200021BDE8F08FE3B300219B
:1035A000BAF1000F4CD00020CAE900C1BDE8F08F8D
:1035B000002B48D000285ED05C1E234269D1BAF1AE
:1035C000000F1CBF04EA0100CAE900C093FAA3F08F
:1035D000B0FA80F021FA00F00021BDE8F08F541E0F
:1035E000224233D1BAF1000F1EBF00230440CAE9C2
:1035F0000043012A00F0FB8092FAA2F24F00B2FAD7
:1036000082F202F01F03D140D8401F23934307FAF0
:1036100003F31843BDE8F08FB0FBF2FCBAF1000FE2
:103620001EBF0CFB12000021CAE900010021604608
:10363000BDE8F08F04F1010CBCF1200F10D032E096
:103640000020BDE8F08F6046BDE8F08FB1FA81F749
:10365000B2FA82F6F71B07F1210CBCF1200F37D12B
:103660004FF0000E4FF0200C0C464FF00009BCF15B
:10367000010F27D04AE0B1FBF3FCBAF1000F1EBFE7
:103680000CFB13100021CAE9001000216046BDE8C0
:10369000F08FB1FA81F4B3FA83F52C1B1F2CBFF421
:1036A00074AF04F1010CC4F11F0620FA0CF501FA05
:1036B00006F42C4321FA0CFEB0404FF00009BCF197
:1036C000010F23D14FF000085FEACC7161D17DE09A
:1036D000BCF11F0F07D8CCF1200620FA0CF401FA38
:1036E00006F52C43E6E7CCF14006ACF120044FF0A0
:1036F000000E01FA06F720FA04F52F4300FA06F946
:1037000021FA04F43846BCF1010FDBD02CF001079C
:103710004FF0000A4FEA4E0141EAD475640044EAD2
:10372000D074E9434000E643B61841EB030BA61AF8
:1037300065EB0301BBF1000F58BF294658BF264671
:103740004900740041EAD67144EAD076B41A40EADE
:10375000D9706FEA060561EB030EAD184FEA400021
:103760006FEA01055D415CBF8E4634464AEA490175
:10377000023F4FEAD57840EAD1704FEA410141EA71
:10378000DB79C246C6D1DDF824A000275FEACC7100
:103790001CD067004FEA4E0147EAD07741EAD47166
:1037A000BC1A4FEA400061EB030EFD4352196FEA69
:1037B000010656EB03025CBF8E463C4640EAD970D8
:1037C0000027D10F48EA4902884691464FEAD9714D
:1037D00041EA40004FEA490240EA070122F00100B5
:1037E000BAF1000F48EA000C18BFCAE9004E604663
:1037F000BDE8F08F40B584B002AE0096FFF7B6FE8C
:10380000029A039B04B040BD00000105352E312E05
:1038100030004275696C7420776974682052656E57
:103820006573617320416476616E63656420466CE4
:10383000657869626C6520536F6674776172652084
:103840005061636B6167652076657273696F6E2086
:10385000352E312E300054656D706572617475724D
:10386000652076616C75653A2025642E2564200AF2
:103870000D00696E660048756D696469747920761B
:10388000616C75653A2025642E2564200A0D006E52
:10389000616E00286E756C6C29000101031C1CFF11
:1038A00000000000A086010000000000010C0405DB
:1038B0000607000000000000000000006F07000085
:1038C000000000009A38000034000020A0380000FA
:1038D000CC3C00000000000000000000440000009C
:1038E00001000000000000000000000000000000D7
:1038F000000000000000000000000000FFFFFFFFCC
:1039000000000020D43800007C000020C505000025
:1039100098000020FC380000AC3C0000103900008A
:103920000000000000000000C704000000010000CB
:103930000C0000200F00FFFF00000000FFFF000050
:10394000050200000C000C010C020C03000000003A
:1039500000000000B1040000000000002C3900004D
:103960000080000000000000008000000100000056
:103970000080000002000000008000000300000042
:10398000104000000400000010400000050000008E
:103990001040000006000000104000000800000079
:1039A000008000000E000000008000000F000000FA
:1039B00000000000040100000000000005010000FC
:1039C000000C010008010000000000000B010000D5
:1039D000000C01120C010000000C01120D0100008E
:1039E000000C01120E010000000000000F01000099
:1039F00000000105020200000000010503020000B2
:103A0000000001050402000000000105050200009D
:103A10000000000006020000000000000702000095
:103A20000000000008020000450C00000A0200002F
:103A3000000C01170B020000000C01170E02000021
:103A4000000C010000030000450C0000030300000F
:103A5000450C000006030000450C000007030000B1
:103A6000450C00000B030000400C0107000400009F
:103A7000400C010701040000104000000204000097
:103A80001040000003040000104000000404000087
:103A9000000C011705040000000C011706040000CB
:103AA000000C011307040000450C0000090400008D
:103AB000000C01060A040000000C01060B040000C3
:103AC000000C01060C040000000C01060D040000AF
:103AD000000000000E040000000000000F040000C1
:103AE000000C010500050000000C010501050000A7
:103AF000000C0105020500000000000003050000A5
:103B000000000000050500000000000006050000A0
:103B1000000C010508050000400C01070B05000022
:103B2000400C01070C050000040C00000106000019
:103B3000040C000002060000040C00000306000054
:103B4000040C00000506000000000000080600004C
:103B5000040C000009060000040C00000A06000026
:103B6000000000000B060000400C01050D060000DF
:103B7000400C01050E060000000C01130F060000AA
:103B8000000C011700070000000C011701070000DE
:103B9000000C011702070000000C011703070000CA
:103BA000000C011704070000000C011705070000B6
:103BB000000C010506070000000C010507070000C6
:103BC000000000000807000000400000030800009B
:103BD0000040000004080000000C0113080A000067
:103BE0005000000060390000000000009E019F01AD
:103BF000A001A101730074007500760000000000B0
:103C000000000000000000000000000000000000B4
:103C100000000000000000000000000000000000A4
:103C20000000000000000000000000000000000094
:103C30000000000000000000000000000000000084
:103C40000000000000000000000000000000000074
:103C50000000000000000000000000000000000064
:103C60000000000000000000000000000000000054
:103C70000000000000000000000000000000000044
:103C80000000000000000000000000000000000034
:103C90000000000000000000000000000000000024
:103CA000000000000000000000000000F705000018
:103CB00019060000270600002B0600002F06000052
:103CC00000000000020403040404FFFFBB0F000017
:103CD0003D10000049100000551000008910000040
:103CE00093100000A1100000B910000001000200B4
:103CF000080010000A06090601060206030605066A
:103D000006000000F43C000000000000000000007D
:103D10000000000000000010000000000000000093
:103D2000B9340332B7F4AD1410DB1AB30892540E51
:103D30000D307D951447BA1A66088F4D26ADC66DB5
:103D4000F598BF85E2B74511CA96853D92BD1DEB3A
:103D5000FCA11860DCEF52163C92AE220BB8C1B445
:103D6000839D2D5B0562DA1C304C7E8F4E8BB25BDF
:103D700016F4529F8B56A512FBD4827643ED8AF03F
:103D80008FE7F9311565191850F19BD94A13EEB434
:103D9000284CF0A686C1251F035FC270CB9E491632
:103DA000E642889C44EB2014B0650836AD6EA585CC
:103DB00085F0CA14E2FD031A0B899979D5B13D0942
:103DC000D8DA973A35EBCF10AC363F5E73BB38CFBD
:103DD0003E6752FA44AFBA1501000000000000002F
:103DE00005000000000000001900000000000000B5
:103DF0007D000000000000007102000000000000D3
:103E0000350C000000000000093D0000000000002B
:103E10002D31010000000000E1F505000000000068
:103E200065CD1D0000000000F902950000000000B3
:103E3000DD0EE90200000000514A8D0E0000000076
:103E40009573C24800000000E941CC6B01000000FE
:103E50008D49FD1A07000000C16FF28623000000A3
:103E6000C52EBCA2B1000000D9E9AC2D780300003A
:103E70003D9160E45811000031D6E275BC56000057
:103E8000F52E6E4DAEB10100C9EA268367780800B1
:103E9000ED95C28F055A2A00A1EDCCCE1BC2D300EE
:103EA00025A4000A8BCA22040000000000000000C4
:103EB0000000000000000000000000409559695912
:103EC0005555545515555556040515411054554032
:103ED00045515544404550445055554500400040DB
:103EE000400444966555565545404554514115404A
:103EF00055915555555540510501000000000000F1
:103F00000100000000000000000000000000002090
:103F1000345065C05FC9A652BB13CBAEC440C218B3
:103F200006C8DF7100D5A87CF56F0FDA58FC27139F
:103F30006E4756357D24206502C7E768E48CA41DD2
:103F4000E9E60268D7CD39617977FCC2405BEF16AC
:103F5000798CDE43FFA751F991F3B278F5BDBE111C
:103F6000E857E9D6E8BEE87BB054AC8F848D751B6A
:103F7000EA23A499E9F9D38BB7A3714061DA3E151E
:103F8000CEE33ECB73F948088C97B427D51B70104D
:103F9000A2BFEFB9EB8532154DB44DB49BBB6F1981
:103FA00096B6076CF8E7EEAD36D9B4F59135AE1399
:103FB000222218AF4E6A684D91DAAA3D4F40741E16
:103FC0009FBD9EE006A1C09857C2A7FDA40E901702
:103FD0000E7D497173E3208FB220D87605143B1211
:103FE000853D7434811343B0AD297A5F27F4351CC5
:103FF0005445545445550504001004101404400061
:1040000000000140555515415404000044000100D2
:1040100000000040410000445044455054005555B4
:1040200054556551004000400100000100050100A9
:104030001154515154555505000000000000000076
:10404000000000001000000000000000017A520093
:10405000017C0E011B0C0D00100000001800000078
:10406000F434000010000000000000000000000018
:10407000FFFFFFFF00000000C838000040003500CF
:01408000FF40
:020000040100F9
:10A10000FFFFFFFFFFFFFFFFFFFFFFFFFFFFFFFF5F
:04A11000FFFFFFFF4F
:04A13400FFFFFFFF2B
:10A20000FFFDFFFFFFFFFFFFFFFFFFFFFFFFFFFF60
:10A21000FFFFFFFFFFFFFFFFFFFFFFFFFFFFFFFF4E
:10A22000FFFFFFFFFFFFFFFFFFFFFFFFFFFFFFFF3E
:10A23000FFFFFFFFFFFFFFFFFFFFFFFFFFFFFFFF2E
:10A24000FFFFFFFFFFFFFFFFFFFFFFFFFFFFFFFF1E
:10A25000FFFFFFFFFFFFFFFFFFFFFFFFFFFFFFFF0E
:10A26000FFFFFFFFFFFFFFFFFFFFFFFFFFFFFFFFFE
:10A27000FFFFFFFFFFFFFFFFFFFFFFFFFFFFFFFFEE
:10A28000F8F8FFFFFFFFFFFFFFFFFFFFFFFFFFFFEC
:10A29000FFFFFFFFFFFFFFFFFFFFFFFFFFFFFFFFCE
:10A2A000FFFFFFFFFFFFFFFFFFFFFFFFFFFFFFFFBE
:10A2B000FFFFFFFFFFFFFFFFFFFFFFFFFFFFFFFFAE
:10A2C000FFFFFFFFFFFFFFFFFFFFFFFFFFFFFFFF9E
:0400000300001C29B4
:00000001FF
